{
 "cells": [
  {
   "cell_type": "code",
   "execution_count": 30,
   "metadata": {
    "collapsed": true
   },
   "outputs": [],
   "source": [
    "\"\"\"\n",
    "txhex:\n",
    "020000000001017bfd0d2548b1809824d3b2d1aa37e33de8d73a18a5c254a6ba0f08f6dc5b16120100000000feffffff026ef3240100000000160014561223656dc1b82d064d2207c1917222d7c06586a086010000000000160014b53648c0b44805c21727eb7b23e5441ce51867610247304402200e62dc69511d09a1a8e11efe282ad5c010c9473c5b7754661689dfcc6afaeb96022070ed98d3409e495033652612d7dbf8fbd3051446d78fc19b640cecb154f3ae8f012102bca743b84b1705f56d3b170b22f7331758d31ff722d04c5192e8918fe692b5cabe212000\n",
    "----------\n",
    "02000000 - version\n",
    "00 - segwit marker\n",
    "01 - segwit flag\n",
    "01 - # of inputs\n",
    "7bfd0d2548b1809824d3b2d1aa37e33de8d73a18a5c254a6ba0f08f6dc5b1612 - previous tx hash\n",
    "01000000 - privous tx index\n",
    "00 - ScriptSig\n",
    "feffffff - sequence\n",
    "02 - # of outputs\n",
    "6ef3240100000000 - output amounts\n",
    "160014561223656dc1b82d064d2207c1917222d7c06586 - script pub key\n",
    "a086010000000000 - output amounts\n",
    "160014b53648c0b44805c21727eb7b23e5441ce5186761 - script pub key\n",
    "0247304402200e62dc69511d09a1a8e11efe282ad5c010c9473c5b7754661689dfcc6afaeb96022070ed98d3409e495033652612d7dbf8fbd3051446d78fc19b640cecb154f3ae8f012102bca743b84b1705f56d3b170b22f7331758d31ff722d04c5192e8918fe692b5ca\n",
    "be212000 - locktime\n",
    "\"\"\"\n",
    "\n",
    "from io import BytesIO\n",
    "from unittest import TestCase\n",
    "\n",
    "import json\n",
    "import requests\n",
    "\n",
    "from ecc import PrivateKey\n",
    "from helper import (\n",
    "    encode_varint,\n",
    "    hash256,\n",
    "    int_to_little_endian,\n",
    "    little_endian_to_int,\n",
    "    read_varint,\n",
    "    SIGHASH_ALL,\n",
    ")\n",
    "from script import p2pkh_script, Script\n",
    "\n",
    "\n",
    "class TxFetcher:\n",
    "    cache = {}\n",
    "\n",
    "    @classmethod\n",
    "    def get_url(cls, testnet=True):\n",
    "        if testnet:\n",
    "            return 'https://blockstream.info/testnet/api'\n",
    "        else:\n",
    "            return 'https://blockstream.info/api'\n",
    "\n",
    "    @classmethod\n",
    "    def fetch(cls, tx_id, testnet=True, fresh=False):\n",
    "        if fresh or (tx_id not in cls.cache):\n",
    "            url = '{}/tx/{}/hex'.format(cls.get_url(testnet), tx_id)\n",
    "            response = requests.get(url)\n",
    "            try:\n",
    "                raw = bytes.fromhex(response.text.strip())\n",
    "            except ValueError:\n",
    "                raise ValueError('unexpected response: {}'.format(response.text))\n",
    "            tx = Tx.parse(BytesIO(raw), testnet=testnet)\n",
    "            # make sure the tx we got matches to the hash we requested\n",
    "            if tx.segwit:\n",
    "                computed = tx.id()\n",
    "            else:\n",
    "                computed = hash256(raw)[::-1].hex()\n",
    "            if computed != tx_id:\n",
    "                raise RuntimeError('server lied: {} vs {}'.format(computed, tx_id))\n",
    "            cls.cache[tx_id] = tx\n",
    "        cls.cache[tx_id].testnet = testnet\n",
    "        return cls.cache[tx_id]\n",
    "\n",
    "    @classmethod\n",
    "    def load_cache(cls, filename):\n",
    "        disk_cache = json.loads(open(filename, 'r').read())\n",
    "        for k, raw_hex in disk_cache.items():\n",
    "            cls.cache[k] = Tx.parse(BytesIO(bytes.fromhex(raw_hex)))\n",
    "\n",
    "    @classmethod\n",
    "    def dump_cache(cls, filename):\n",
    "        with open(filename, 'w') as f:\n",
    "            to_dump = {k: tx.serialize().hex() for k, tx in cls.cache.items()}\n",
    "            s = json.dumps(to_dump, sort_keys=True, indent=4)\n",
    "            f.write(s)\n",
    "\n",
    "\n",
    "class TxIn:\n",
    "\n",
    "    def __init__(self, prev_tx, prev_index, script_sig=None, sequence=0xffffffff):\n",
    "        self.prev_tx = prev_tx\n",
    "        self.prev_index = prev_index\n",
    "        if script_sig is None:\n",
    "            self.script_sig = Script()\n",
    "        else:\n",
    "            self.script_sig = script_sig\n",
    "        self.sequence = sequence\n",
    "\n",
    "    def __repr__(self):\n",
    "        return '{}:{}'.format(\n",
    "            self.prev_tx.hex(),\n",
    "            self.prev_index,\n",
    "        )\n",
    "\n",
    "    @classmethod\n",
    "    def parse(cls, s):\n",
    "        '''Takes a byte stream and parses the tx_input at the start\n",
    "        return a TxIn object\n",
    "        '''\n",
    "        # reverse the little endian bytes\n",
    "        prev_tx = s.read(32)[::-1]\n",
    "        # prev_index is an integer in 4 bytes, little endian\n",
    "        prev_index = little_endian_to_int(s.read(4))\n",
    "        # use Script.parse to get the ScriptSig\n",
    "        script_sig = Script.parse(s)\n",
    "        # sequence is an integer in 4 bytes, little-endian\n",
    "        sequence = little_endian_to_int(s.read(4))\n",
    "        # return an instance of the class (see __init__ for args)\n",
    "        return cls(prev_tx, prev_index, script_sig, sequence)\n",
    "\n",
    "    def serialize(self):\n",
    "        \"\"\"Returns the byte serialization of the transaction input\"\"\"\n",
    "        # serialize prev_tx, little endian\n",
    "        result = self.prev_tx[::-1]\n",
    "        # serialize prev_index, 4 bytes, little endian\n",
    "        result += int_to_little_endian(self.prev_index, 4)\n",
    "        # serialize the script_sig\n",
    "        result += self.script_sig.serialize()\n",
    "        # serialize sequence, 4 bytes, little endian\n",
    "        result += int_to_little_endian(self.sequence, 4)\n",
    "        return result\n",
    "\n",
    "    def fetch_tx(self, testnet=True):\n",
    "        return TxFetcher.fetch(self.prev_tx.hex(), testnet=testnet)\n",
    "\n",
    "    def value(self, testnet=True):\n",
    "        \"\"\"Get the outpoint value by looking up the tx hash\n",
    "        Returns the amount in satoshi\n",
    "        \"\"\"\n",
    "        # use self.fetch_tx to get the transaction\n",
    "        tx = self.fetch_tx(testnet=testnet)\n",
    "        # get the output at self.prev_index\n",
    "        # return the amount property\n",
    "        return tx.tx_outs[self.prev_index].amount\n",
    "\n",
    "    def script_pubkey(self, testnet=True):\n",
    "        \"\"\"Get the ScriptPubKey by looking up the tx hash\n",
    "        Returns a Script object\n",
    "        \"\"\"\n",
    "        # use self.fetch_tx to get the transaction\n",
    "        tx = self.fetch_tx(testnet=testnet)\n",
    "        # get the output at self.prev_index\n",
    "        # return the script_pubkey property\n",
    "        return tx.tx_outs[self.prev_index].script_pubkey\n",
    "\n",
    "\n",
    "class TxOut:\n",
    "\n",
    "    def __init__(self, amount, script_pubkey):\n",
    "        self.amount = amount\n",
    "        self.script_pubkey = script_pubkey\n",
    "\n",
    "    def __repr__(self):\n",
    "        return '{}:{}'.format(self.amount, self.script_pubkey)\n",
    "\n",
    "    @classmethod\n",
    "    def parse(cls, s):\n",
    "        '''Takes a byte stream and parses the tx_output at the start\n",
    "        return a TxOut object\n",
    "        '''\n",
    "        # amount is an integer in 8 bytes, little endian\n",
    "        amount = little_endian_to_int(s.read(8))\n",
    "        # use Script.parse to get the ScriptPubKey\n",
    "        script_pubkey = Script.parse(s)\n",
    "        # return an instance of the class (see __init__ for args)\n",
    "        return cls(amount, script_pubkey)\n",
    "\n",
    "    def serialize(self):\n",
    "        '''Returns the byte serialization of the transaction output'''\n",
    "        # serialize amount, 8 bytes, little endian\n",
    "        result = int_to_little_endian(self.amount, 8)\n",
    "        # serialize the script_pubkey\n",
    "        result += self.script_pubkey.serialize()\n",
    "        return result\n",
    "\n",
    "\n",
    "class Tx:\n",
    "    command = b'tx'\n",
    "\n",
    "    def __init__(self, version, tx_ins, tx_outs, locktime, testnet=True, segwit=False):\n",
    "        self.version = version\n",
    "        self.tx_ins = tx_ins\n",
    "        self.tx_outs = tx_outs\n",
    "        self.testnet = testnet\n",
    "        self.locktime = locktime\n",
    "        self.segwit = segwit\n",
    "\n",
    "    @classmethod\n",
    "    def parse(cls, s, testnet=True):\n",
    "        s.read(4)\n",
    "        # the fifth bytes tells whether it's a segwit transaction\n",
    "        if s.read(1) == b'\\x00':\n",
    "            parse_method = cls.parse_segwit\n",
    "        else:\n",
    "            parse_method = cls.parse_legacy\n",
    "        # move the cursor back the the beginning of the transaction stream\n",
    "        s.seek(-5, 1)\n",
    "        return parse_method(s, testnet=testnet)\n",
    "\n",
    "    @classmethod\n",
    "    def parse_legacy(cls, s, testnet=True):\n",
    "        version = little_endian_to_int(s.read(4))  # <4>\n",
    "        num_inputs = read_varint(s)\n",
    "        inputs = []\n",
    "        for _ in range(num_inputs):\n",
    "            inputs.append(TxIn.parse(s))\n",
    "        num_outputs = read_varint(s)\n",
    "        outputs = []\n",
    "        for _ in range(num_outputs):\n",
    "            outputs.append(TxOut.parse(s))\n",
    "        locktime = little_endian_to_int(s.read(4))\n",
    "        return cls(version, inputs, outputs, locktime,\n",
    "                   testnet=testnet, segwit=False)\n",
    "\n",
    "    @classmethod\n",
    "    def parse_segwit(cls, s, testnet=True):\n",
    "        version = little_endian_to_int(s.read(4))\n",
    "        marker = s.read(2)\n",
    "        if marker != b'\\x00\\x01':  # <1>\n",
    "            raise RuntimeError('Not a segwit transaction {}'.format(marker))\n",
    "        num_inputs = read_varint(s)\n",
    "        inputs = []\n",
    "        for idx in range(num_inputs):\n",
    "            inputs.append(TxIn.parse(s))\n",
    "        num_outputs = read_varint(s)\n",
    "        outputs = []\n",
    "        for _ in range(num_outputs):\n",
    "            outputs.append(TxOut.parse(s))\n",
    "        for tx_in in inputs:  # <2>\n",
    "            num_items = read_varint(s)\n",
    "            items = []\n",
    "            for _ in range(num_items):\n",
    "                item_len = read_varint(s)\n",
    "                if item_len == 0:\n",
    "                    items.append(0)\n",
    "                else:\n",
    "                    items.append(s.read(item_len))\n",
    "            tx_in.witness = items\n",
    "        locktime = little_endian_to_int(s.read(4))\n",
    "        return cls(version, inputs, outputs, locktime,\n",
    "                   testnet=testnet, segwit=True)"
   ]
  },
  {
   "cell_type": "code",
   "execution_count": 31,
   "outputs": [
    {
     "name": "stdout",
     "output_type": "stream",
     "text": [
      "parse segwit input 0\n",
      "version: 2, locktime: 2105790, txins: [12165bdcf6080fbaa654c2a5183ad7e83de337aad1b2d3249880b148250dfd7b:1], txouts [19198830:OP_0 561223656dc1b82d064d2207c1917222d7c06586, 100000:OP_0 b53648c0b44805c21727eb7b23e5441ce5186761]\n"
     ]
    }
   ],
   "source": [
    "raw_tx=bytes.fromhex(\"020000000001017bfd0d2548b1809824d3b2d1aa37e33de8d73a18a5c254a6ba0f08f6dc5b16120100000000feffffff026ef3240100000000160014561223656dc1b82d064d2207c1917222d7c06586a086010000000000160014b53648c0b44805c21727eb7b23e5441ce51867610247304402200e62dc69511d09a1a8e11efe282ad5c010c9473c5b7754661689dfcc6afaeb96022070ed98d3409e495033652612d7dbf8fbd3051446d78fc19b640cecb154f3ae8f012102bca743b84b1705f56d3b170b22f7331758d31ff722d04c5192e8918fe692b5cabe212000\")\n",
    "stream = BytesIO(raw_tx)\n",
    "tx = Tx.parse(stream)\n",
    "print(\"version: {}, locktime: {}, txins: {}, txouts {}\".format(tx.version, tx.locktime, tx.tx_ins, tx.tx_outs))\n",
    "\n"
   ],
   "metadata": {
    "collapsed": false,
    "pycharm": {
     "name": "#%%\n"
    }
   }
  }
 ],
 "metadata": {
  "kernelspec": {
   "display_name": "Python 3",
   "language": "python",
   "name": "python3"
  },
  "language_info": {
   "codemirror_mode": {
    "name": "ipython",
    "version": 2
   },
   "file_extension": ".py",
   "mimetype": "text/x-python",
   "name": "python",
   "nbconvert_exporter": "python",
   "pygments_lexer": "ipython2",
   "version": "2.7.6"
  }
 },
 "nbformat": 4,
 "nbformat_minor": 0
}